:020000040000FA
:100000000C9461000C9473000C9473000C947300B6
:100010000C9473000C9473000C9473000C94730094
:100020000C9473000C9473000C9473000C94730084
:100030000C9473000C9473000C9473000C94730074
:100040000C94B4010C9473000C9473000C94730022
:100050000C9473000C9473000C9473000C94FE01C8
:100060000C9473000C947300000000002300260021
:10007000290000000008000201000003040700003E
:1000800000000000000000000000250028002B00F8
:1000900000000000240027002A00040404040404D3
:1000A0000404020202020202030303030303010227
:1000B00004081020408001020408102001020408F6
:1000C000102011241FBECFEFD8E0DEBFCDBF21E04E
:1000D000A0E0B1E001C01D92AD30B207E1F70E948F
:1000E00053020C942D030C940000CF93DF9390E007
:1000F000FC01E255FF4F249186569F4FFC018491ED
:100100008823C1F090E0880F991FFC01E057FF4F52
:10011000C591D491FC01EA57FF4FA591B4919FB7C7
:10012000F8943881822F809583238883EC91E22B89
:10013000EC939FBFDF91CF91089590E0FC01EE58C2
:10014000FF4F2491FC01E255FF4F3491FC01E6562C
:10015000FF4FE491EE23C1F1222339F02330E9F07F
:1001600090F4213001F1223011F1F0E0EE0FFF1F89
:10017000E859FF4FA591B491EC91E32381E090E021
:1001800029F580E008952730A9F02830C9F02430FF
:1001900061F7809180008F7D03C0809180008F7710
:1001A00080938000E2CF84B58F7784BDDECF84B5A5
:1001B0008F7DFBCF8091B0008F778093B000D5CF3B
:1001C0008091B0008F7DF9CF80E090E008953FB737
:1001D000F8948091050190910601A0910701B091DA
:1001E000080126B5A89B05C02F3F19F00196A11D57
:1001F000B11D3FBFBA2FA92F982F8827BC01CD0171
:10020000620F711D811D911D42E0660F771F881FCF
:10021000991F4A95D1F708958F929F92AF92BF92FE
:10022000CF92DF92EF92FF920E94E7004B015C01B8
:1002300084E6C82ED12CE12CF12C0E94E70068192D
:1002400079098A099B09683E734081059105A8F3E5
:1002500021E0C21AD108E108F10888EE880E83E097
:10026000981EA11CB11CC114D104E104F10429F7AA
:10027000FF90EF90DF90CF90BF90AF909F908F90C6
:10028000089580910A018230A1F128F4882359F061
:100290008130D9F00895843009F44AC0C8F185301E
:1002A00009F456C008958BB1877D8BB95C9A109282
:1002B000800081E88093B00010927A0080E48093FF
:1002C0007B0083E080937C001FC08BB18F7C8BB957
:1002D0005B9A1092800081E88093B00010927A00BF
:1002E00080E480937B0082E080937C0080B78E7FE7
:1002F0000DC08BB18F7C8BB95B9A1092B00081E2FC
:100300008093800010927B0080B7836080BF089547
:100310008BB1877E8BB95D9A1092B00081E2809399
:10032000800010927A0080E480937B0083E0DCCF31
:100330008BB1877E8BB95D9A1092B00081E8809373
:10034000800010927A0080E480937B0082E0BACF34
:100350008BB1877D8BB95C9A1092B00081E8809355
:10036000800010927B00C2CF1F920F920FB60F92A7
:1003700011242F933F938F939F93AF93BF938091BB
:10038000010190910201A0910301B091040130910B
:10039000000123E0230F2D3758F50196A11DB11D53
:1003A000209300018093010190930201A093030127
:1003B000B09304018091050190910601A09107017D
:1003C000B09108010196A11DB11D80930501909384
:1003D0000601A0930701B0930801BF91AF919F91CF
:1003E0008F913F912F910F900FBE0F901F901895F6
:1003F00026E8230F0296A11DB11DD2CF1F920F92A6
:100400000FB60F9211242F933F934F935F936F93E7
:100410007F938F939F93AF93BF93CF93EF93FF936C
:1004200010920C0110920B01C0910A014C2F4170E7
:1004300020910B0130910C012A303105C8F444237E
:1004400051F000B605FC0AC02150310930930C016F
:1004500020930B0103C000B605FCF6CF80910B0181
:1004600090910C01019690930C0180930B01E0CFC9
:100470000E94410181E08C0F66E00E94210390936D
:100480000A01FF91EF91CF91BF91AF919F918F9111
:100490007F916F915F914F913F912F910F900FBE80
:1004A0000F901F901895789484B5826084BD84B5B0
:1004B000816084BD85B5826085BD85B5816085BD5F
:1004C00080916E00816080936E0010928100809117
:1004D000810082608093810080918100816080939F
:1004E0008100809180008160809380008091B100C4
:1004F00084608093B1008091B00081608093B000EF
:1005000080917A00846080937A0080917A00826082
:1005100080937A0080917A00816080937A00809144
:100520007A00806880937A001092C1008AB1886353
:100530008AB91BB884B18E6084B981E385B9109201
:10054000800081E0809381001092B0008093B10020
:1005500080E180BF8EE00E9475008FE00E947500F0
:1005600084E690E0909389008093880090938B00BC
:1005700080938A008093B30088E893E190930C0104
:1005800080930B0116E0C0910B01D0910C01C53690
:10059000D105C0F0CE01880F991F880F991F0597CC
:1005A0000197F1F70E94410180910A018F5F612F4D
:1005B0000E94210390930A016497D0930C01C09389
:1005C0000B01E1CF84E68093090180B7886080BF8A
:1005D0008EE00E949D00892BC9F4809109018F3F14
:1005E000A9F08F5F80930901823308F482E3282FFA
:1005F00030E0309389002093880030938B00209363
:100600008A008093B3000E940C01E2CF8FE00E9429
:100610009D00892BE9F6809109018333C8F281504E
:1006200080930901282F30E03093890020938800BF
:1006300030938B0020938A008093B3000E940C01BA
:10064000E5CF991B79E004C0991F961708F0961B17
:0E065000881F7A95C9F780950895F894FFCF1A
:107800000C94343C0C94513C0C94513C0C94513CE1
:107810000C94513C0C94513C0C94513C0C94513CB4
:107820000C94513C0C94513C0C94513C0C94513CA4
:107830000C94513C0C94513C0C94513C0C94513C94
:107840000C94513C0C94513C0C94513C0C94513C84
:107850000C94513C0C94513C0C94513C0C94513C74
:107860000C94513C0C94513C11241FBECFEFD8E036
:10787000DEBFCDBF11E0A0E0B1E0ECE9FFE702C060
:1078800005900D92A230B107D9F712E0A2E0B1E065
:1078900001C01D92AD30B107E1F70E942D3D0C945F
:1078A000CC3F0C94003C982F959595959595959582
:1078B000905D8F708A307CF0282F295A8091C0000B
:1078C00085FFFCCF9093C6008091C00085FFFCCF60
:1078D0002093C6000895282F205DF0CF982F809127
:1078E000C00085FFFCCF9093C6000895EF92FF92F1
:1078F0000F931F93EE24FF2487018091C00087FD22
:1079000017C00894E11CF11C011D111D81E4E8164B
:1079100082E4F8068FE0080780E0180770F3E09132
:107920000401F091050109958091C00087FFE9CF1E
:107930008091C6001F910F91FF90EF9008950E94D3
:10794000763C982F8091C00085FFFCCF9093C600B5
:1079500091362CF490330CF09053892F089597555D
:10796000892F08951F930E949F3C182F0E949F3CCF
:107970001295107F810F1F9108951F93182F882350
:1079800021F00E94763C1150E1F71F9108951F935A
:10799000182F0E94763C803249F0809103018F5F5E
:1079A000809303018530C1F01F9108958091C0003C
:1079B00085FFFCCF84E18093C6008091C00085FFE5
:1079C000FCCF1093C6008091C00085FFFCCF80E102
:1079D0008093C6001F910895E0910401F091050184
:1079E00009951F9108950E94763C803241F0809164
:1079F00003018F5F80930301853081F008958091AA
:107A0000C00085FFFCCF84E18093C6008091C00058
:107A100085FFFCCF80E18093C6000895E0910401CA
:107A2000F09105010995089540E951E08823A1F0FE
:107A30002D9A28EE33E0FA013197F1F721503040CA
:107A4000D1F72D9828EE33E0FA013197F1F7215064
:107A50003040D1F7815061F708953F924F925F9285
:107A60006F927F928F929F92AF92BF92CF92DF924E
:107A7000EF92FF920F931F93CF93DF93000080E16B
:107A80008093C4001092C50088E18093C10086E015
:107A90008093C2005098589A259A81E00E94143D24
:107AA00024E1F22E9EE1E92E85E9D82E0FE0C02ECA
:107AB00010E1B12EAA24A394B1E49B2EA6E58A2E50
:107AC000F2E57F2EE0E26E2E79E4572E63E5462E36
:107AD00050E5352E0E94763C8033B1F18133B9F107
:107AE000803409F46FC0813409F476C0823409F41B
:107AF00085C0853409F488C0803531F1823521F1A3
:107B0000813511F1853509F485C0863509F48DC0BC
:107B1000843609F496C0843709F403C1853709F423
:107B200072C1863709F466C0809103018F5F80932C
:107B30000301853079F6E0910401F0910501099582
:107B40000E94763C803351F60E94F33CC3CF0E94E2
:107B5000763C803249F78091C00085FFFCCFF092DF
:107B6000C6008091C00085FFFCCF9092C600809136
:107B7000C00085FFFCCF8092C6008091C00085FFC9
:107B8000FCCF7092C6008091C00085FFFCCF609250
:107B9000C6008091C00085FFFCCF5092C600809146
:107BA000C00085FFFCCF4092C6008091C00085FFD9
:107BB000FCCF3092C6008091C00085FFFCCFB09210
:107BC000C60088CF0E94763C863808F4BDCF0E945C
:107BD000763C0E94F33C7ECF0E94763C803809F4CC
:107BE0009CC0813809F40BC1823809F43CC1883942
:107BF00009F48FC080E00E94C73C6CCF84E10E94F2
:107C0000BD3C0E94F33C66CF85E00E94BD3C0E94D3
:107C1000F33C60CF0E94763C809306010E94763C44
:107C2000809307010E94F33C55CF0E94763C80333D
:107C300009F41DC183E00E94BD3C80E00E94C73C66
:107C400049CF0E94763C809309020E94763C809343
:107C5000080280910C028E7F80930C020E94763C79
:107C6000853409F415C18091080290910902892B8D
:107C700089F000E010E00E94763CF801E85FFE4FDA
:107C800080830F5F1F4F80910802909109020817AF
:107C9000190788F30E94763C803209F045CF809125
:107CA0000C0280FF01C16091060170910701660F0F
:107CB000771F7093070160930601A0910802B091AD
:107CC00009021097C9F0E8E0F1E09B01AD014E0F09
:107CD0005F1FF999FECF32BD21BD819180BDFA9A17
:107CE000F99A2F5F3F4FE417F50799F76A0F7B1F4B
:107CF00070930701609306018091C00085FFFCCF5F
:107D0000F092C6008091C00085FFFCCFB092C60003
:107D1000E1CE83E00E94C73CDDCE82E00E94C73CFA
:107D2000D9CE0E94763C809309020E94763C8093D3
:107D300008028091060190910701880F991F909386
:107D40000701809306010E94763C853409F4A6C0A1
:107D500080910C028E7F80930C020E94763C8032D0
:107D600009F0B8CE8091C00085FFFCCFF092C6002C
:107D7000609108027091090261157105B9F140E046
:107D800050E080910C02A82FA170B82FB27011C0E2
:107D9000BB2309F45CC0E0910601F0910701319624
:107DA000F0930701E09306014F5F5F4F46175707B7
:107DB000E8F4AA2369F3F999FECF209106013091E6
:107DC000070132BD21BDF89A90B58091C00085FFB2
:107DD000FCCF9093C6002F5F3F4F30930701209355
:107DE00006014F5F5F4F4617570718F38091C00099
:107DF00085FDE5CE8091C00085FFF8CFE0CE81E023
:107E00000E94C73C67CE0E94763C803209F08CCE3F
:107E10008091C00085FFFCCFF092C6008091C00029
:107E200085FFFCCFE092C6008091C00085FFFCCFAB
:107E3000D092C6008091C00085FFFCCFC092C600E2
:107E40008091C00085FFFCCFB092C60043CEE09188
:107E50000601F091070194918091C00085FFFCCF4D
:107E60009093C6009CCF80E10E94C73C33CE0E9415
:107E7000763C0E94763C182F0E94763C112309F430
:107E800083C0113009F484C08FE00E94C73C22CE29
:107E900080910C02816080930C02E5CE80910C02EF
:107EA000816080930C0259CF809107018823880F4D
:107EB000880B8A2180930B02809106019091070123
:107EC000880F991F90930701809306018091080203
:107ED00080FF09C080910802909109020196909359
:107EE000090280930802F894F999FECF1127E091D6
:107EF0000601F0910701C8E0D1E08091080290915D
:107F00000902103091F40091570001700130D9F34B
:107F100003E000935700E89500915700017001308D
:107F2000D9F301E100935700E89509901990009169
:107F3000570001700130D9F301E000935700E89534
:107F40001395103498F011270091570001700130FB
:107F5000D9F305E000935700E895009157000170B0
:107F60000130D9F301E100935700E895329602976A
:107F700009F0C7CF103011F00296E5CF112480919F
:107F8000C00085FFB9CEBCCE8EE10E94C73CA2CD19
:0E7F900085E90E94C73C9ECDF894FFCF80008B
:00000001FF
