:100000000C9462000C948A000C948A000C948A0070
:100010000C948A000C948A000C948A000C948A0038
:100020000C948A000C948A000C948A000C948A0028
:100030000C948A000C948A000C948A000C948A0018
:100040000C9430030C948A000C94FE020C94D80299
:100050000C948A000C948A000C948A000C947A0305
:100060000C948A000C948A000000000023002600F3
:10007000290000000008000201000003040700003E
:1000800000000000000000000000250028002B00F8
:1000900000000000240027002A00040404040404D3
:1000A0000404020202020202030303030303010227
:1000B00004081020408001020408102001020408F6
:1000C0001020F40411241FBECFEFD8E0DEBFCDBF57
:1000D00011E0A0E0B1E0EAE6FAE002C005900D927E
:1000E000AA32B107D9F721E0AAE2B1E001C01D921E
:1000F000A53DB207E1F710E0C2E6D0E004C02197C9
:10010000FE010E942D05C136D107C9F70E94E40304
:100110000C9433050C940000CF93DF9390E0FC0126
:10012000E255FF4F249186569F4FFC01849188230E
:10013000C1F090E0880F991FFC01E057FF4FC59177
:10014000D491FC01EA57FF4FA591B4919FB7F89461
:100150003881822F809583238883EC91E22BEC9366
:100160009FBFDF91CF910895AF92BF92CF92DF9260
:10017000EF92FF920F931F93CF93DF936C017B015C
:100180008B01040F151FEB015E01AE18BF08C017ED
:10019000D10759F06991D601ED91FC910190F08160
:1001A000E02DC6010995892B79F7C501DF91CF9123
:1001B0001F910F91FF90EF90DF90CF90BF90AF9085
:1001C0000895FC01538D448D252F30E0842F90E05D
:1001D000821B930B541710F0CF9608950197089542
:1001E000FC01918D828D981761F0A28DAE0FBF2F0B
:1001F000B11D5D968C91928D9F5F9F73928F90E061
:1002000008958FEF9FEF0895FC01918D828D9817CF
:1002100031F0828DE80FF11D858D90E008958FEF0C
:100220009FEF0895FC01918D228D892F90E0805CD5
:100230009F4F821B91098F739927089584E391E062
:100240000E94120121E0892B09F420E0822F0895F9
:1002500080E090E0892B29F00E941E0181110C940E
:1002600000000895FC01A48DA80FB92FB11DA35A59
:10027000BF4F2C91848D90E001968F739927848FC6
:10028000A689B7892C93A089B1898C9183708064E9
:100290008C93938D848D981306C00288F389E02D8A
:1002A00080818F7D80830895EF92FF920F931F933B
:1002B000CF93DF93EC0181E0888F9B8D8C8D981319
:1002C0001AC0E889F989808185FF15C09FB7F89425
:1002D000EE89FF896083E889F98980818370806471
:1002E00080839FBF81E090E0DF91CF911F910F91BC
:1002F000FF90EF900895F62E0B8D10E00F5F1F4FCB
:100300000F731127E02E8C8D8E110CC00FB607FCD9
:10031000FACFE889F989808185FFF5CFCE010E9467
:100320003201F1CFEB8DEC0FFD2FF11DE35AFF4FA2
:10033000F0829FB7F8940B8FEA89FB8980818062F5
:10034000CFCFCF93DF93EC01888D8823B9F0AA89B2
:10035000BB89E889F9898C9185FD03C0808186FD80
:100360000DC00FB607FCF7CF8C9185FFF2CF8081CF
:1003700085FFEDCFCE010E943201E9CFDF91CF9111
:10038000089590E0FC01EE58FF4F2491FC01E255E6
:10039000FF4F3491FC01E656FF4FE491EE23C1F18B
:1003A000222339F02330E9F090F4213001F122309A
:1003B00011F1F0E0EE0FFF1FE859FF4FA591B49146
:1003C000EC91E32381E090E029F580E00895273067
:1003D000A9F02830C9F0243061F7809180008F7D2A
:1003E00003C0809180008F7780938000E2CF84B536
:1003F0008F7784BDDECF84B58F7DFBCF8091B00039
:100400008F778093B000D5CF8091B0008F7DF9CFEA
:1004100080E090E008953FB7F8948091300190918A
:100420003101A0913201B091330126B5A89B05C0DE
:100430002F3F19F00196A11DB11D3FBFBA2FA92F63
:10044000982F8827BC01CD01620F711D811D911D60
:1004500042E0660F771F881F991F4A95D1F70895CC
:100460008F929F92AF92BF92CF92DF92EF92FF92C4
:100470000E940B024B015C0184E6C82ED12CE12CBA
:10048000F12C0E940B02681979098A099B09683EC0
:10049000734081059105A8F321E0C21AD108E10853
:1004A000F10888EE880E83E0981EA11CB11CC114CF
:1004B000D104E104F10429F7FF90EF90DF90CF9091
:1004C000BF90AF909F908F9008958091D20182301D
:1004D000A1F128F4882359F08130D9F008958430AF
:1004E00009F44AC0C8F1853009F456C008958BB1AB
:1004F000877D8BB95C9A1092800081E88093B00070
:1005000010927A0080E480937B0083E080937C00EB
:100510001FC08BB18F7C8BB95B9A1092800081E8F1
:100520008093B00010927A0080E480937B0082E098
:1005300080937C0080B78E7F0DC08BB18F7C8BB990
:100540005B9A1092B00081E28093800010927B0051
:1005500080B7836080BF08958BB1877E8BB95D9A29
:100560001092B00081E28093800010927A0080E4C3
:1005700080937B0083E0DCCF8BB1877E8BB95D9A63
:100580001092B00081E88093800010927A0080E49D
:1005900080937B0082E0BACF8BB1877D8BB95C9A68
:1005A0001092B00081E88093800010927B00C2CF4F
:1005B0001F920F920FB60F9211242F933F934F93D8
:1005C0005F936F937F938F939F93AF93BF93EF93BB
:1005D000FF9384E391E00E943201FF91EF91BF917C
:1005E000AF919F918F917F916F915F914F913F91CB
:1005F0002F910F900FBE0F901F9018951F920F9282
:100600000FB60F9211242F938F939F93EF93FF9325
:10061000E0914401F09145018081E0914A01F0911F
:100620004B0182FD1BC0908180914D018F5F8F73C4
:1006300020914E01821741F0E0914D01F0E0EC5C19
:10064000FE4F958F80934D01FF91EF919F918F9178
:100650002F910F900FBE0F901F9018958081F4CFAF
:100660001F920F920FB60F9211242F933F938F93E7
:100670009F93AF93BF9380912C0190912D01A091F6
:100680002E01B0912F0130912B0123E0230F2D3744
:1006900058F50196A11DB11D20932B0180932C01CB
:1006A00090932D01A0932E01B0932F0180913001E2
:1006B00090913101A0913201B09133010196A11DB9
:1006C000B11D8093300190933101A0933201B0931A
:1006D0003301BF91AF919F918F913F912F910F90D7
:1006E0000FBE0F901F90189526E8230F0296A11DAC
:1006F000B11DD2CF1F920F920FB60F9211242F93DC
:100700003F934F935F936F937F938F939F93AF9399
:10071000BF93CF93EF93FF938091D10180932A01F0
:100720001092D4011092D3012091D3013091D401C1
:10073000C091D2012430310560F590912A01C0FFAB
:100740000AC000B605FC0AC0215031093093D4011B
:100750002093D30103C000B605FCF6CF953F78F493
:100760009E5F90932A01292F30E0309389002093D7
:10077000880030938B0020938A009093B30080917F
:10078000D3019091D40101969093D4018093D30129
:10079000CBCF0E94650281E08C0F66E00E942105AC
:1007A0009093D201FF91EF91CF91BF91AF919F9123
:1007B0008F917F916F915F914F913F912F910F900A
:1007C0000FBE0F901F901895789484B5826084BDF9
:1007D00084B5816084BD85B5826085BD85B5816045
:1007E00085BD80916E00816080936E0010928100C3
:1007F000809181008260809381008091810081607E
:10080000809381008091800081608093800080913E
:10081000B10084608093B1008091B00081608093CA
:10082000B00080917A00846080937A0080917A0091
:10083000826080937A0080917A00816080937A0050
:1008400080917A00806880937A001092C1008AB10A
:1008500088638AB91BB884B18E6084B981E385B995
:100860001092800081E0809381001092B00080930C
:10087000B10080E180BF8EE00E948C008FE00E947A
:100880008C00E0914401F091450182E08083E09189
:100890004001F09141011082E0914201F091430149
:1008A0008FEC808310924C01E0914801F091490156
:1008B00086E08083E0914601F0914701808180616C
:1008C0008083E0914601F0914701808188608083B8
:1008D000E0914601F0914701808180688083E0913A
:1008E0004601F091470180818F7D808386E490E00E
:1008F000909389008093880090938B0080938A0066
:100900008093B30088E893E19093D4018093D3015E
:1009100016E0C091D301D091D401C536D105C0F005
:10092000CE01880F991F880F991F05970197F1F73E
:100930000E9465028091D2018F5F612F0E94210584
:100940009093D2016497D093D401C093D301E1CFA7
:1009500086E48093D10180B7886080BF8EE00E94DA
:10096000C101892BF1F48091D1018F3FD1F08F5FCC
:100970008093D101282F30E03093890020938800A4
:1009800030938B0020938A008093B3000E94300242
:100990004AE050E062E171E084E391E00E94B4003B
:1009A000DDCF8FE00E94C101892BC1F68091D1017A
:1009B0008823A1F281508093D101282F30E0309319
:1009C00089002093880030938B0020938A008093C5
:1009D000B3000E9430024CE050E06DE171E084E32E
:1009E00091E00E94B400DDCFE4E3F1E013821282D3
:1009F00088EE93E0A0E0B0E084839583A683B7837C
:100A000084E091E09183808385EC90E095878487F2
:100A100084EC90E09787868780EC90E0918B808BC8
:100A200081EC90E0938B828B82EC90E0958B848BB1
:100A300086EC90E0978B868B118E128E138E148E1F
:100A40000895991B79E004C0991F961708F0961B2A
:100A5000881F7A95C9F780950895EE0FFF1F0590BE
:0A0A6000F491E02D0994F894FFCF03
:100A6A00000000005401B400E100A1011201F000ED
:100A7A0004015370656564205550200A005370655F
:0A0A8A00656420446F776E200A00B7
:00000001FF
